:020000040800F2
:10000000002000103D250308A5250308613B0008DA
:10001000A5250308A5250308A52503080000000061
:10002000000000000000000000000000A5250308FB
:10003000A525030800000000A5250308E9300008F5
:10004000A5250308A5250308A5250308A52503085C
:10005000A5250308A5250308393C0008653D0008CF
:10006000293D0008ED3C0008B13C00088D950008D2
:100070007D9500086D9500085D9500084D95000878
:100080003995000825950008A5250308A52503082E
:10009000A5250308A5250308A5250308753C000828
:1000A000912100089D240008C52000081926000899
:1000B000E1230008252300085D220008A525030888
:1000C000A5250308A5250308A5250308A5250308DC
:1000D000A525030815320008993100081D310008D4
:1000E000FD3B0008A5250308A5250308A525030851
:1000F000A5250308A5250308A5250308A5250308AC
:10010000000000000000000000000000A52503081A
:10011000A5250308A5250308ED490108D1490108D3
:1001200011950008FD940008E9940008D594000892
:10013000C1940008A525030800000000000000008D
:10014000A5250308A5250308A52503080000000030
:10015000000000000000000000000000000000009F
:100160000000000000000000A5250308A5250308E5
:10017000A5250308000000000000000000000000AA
:0801800000000000A5250308A2
:1001880090ED057A90ED004AD0ED066AD0ED014A6F
:10019800D0ED047A90ED035AD0ED025AA4EE007A1D
:1001A800B0EE406AB0EE470AB0EE667AA4EE867A00
:1001B80067EEC07AA5EE407AE5EE867A80ED057A9C
:1001C800C0ED067A704700BF38B50B4C23688BB179
:1001D8005A68821A002A054604DA0BE05A68AA1AF5
:1001E800002A07DB9A68226018461A689047236835
:1001F800002BF3D138BD00BFD0290020436A8269A3
:10020800D154436A0169826B01338B4228BF0023B2
:1002180043623AB370B4EFF31183502282F3128829
:10022800866B3268D20704D5DBB283F3118870BCC1
:100238007047716869B9D0E90942944218D0856954
:100248001544F56018D9A21A72608462002280F8F9
:100258005420326842F00102DBB2326083F3118825
:1002680070BC7047026D136843F0800313607047D9
:10027800012280F85420D7E70469A21A72608162CB
:10028800E4E700BF034610B4446BD968406954B131
:100298005A6C8C1A013A005D5DF8044B08BF0A4697
:1002A800C0B25A6470471A6A805C01328A4228BF19
:1002B8002246C0B21A625DF8044B7047836B13B1D3
:1002C80090F854007047D0E90903181AB0FA80F082
:1002D80040097047D0E909120369914238BFC9182B
:1002E8008A1A816B013B19B149680A449A4201D2C2
:1002F800981A704700207047436B43B1426C5B68A3
:100308009A4291BF981AC0689B1AC0187047D0E9E2
:1003180007239A422FBFD01AC0688018C01A7047A6
:100328000A4B30B503F1140493F900205D78072ACD
:10033800C8BF143A811804330D7313F8025C85544E
:1003480013F8012C0A769C42EED130BD302B0308FD
:1003580003682DE9F041DD691DB12B46BDE8F04188
:100368001847002A174611DD04460E460F4400E0E0
:1003780023689B68204698470028F9D0236816F818
:10038800011B1B6820469847BE42F1D1BDE8F081A9
:1003980000232322027043708370C370704700BF2C
:1003A8000028F0B403DA2D230B70404201310928EC
:1003B80004464FF0010307DD03EB83035B00B0FB4A
:1003C800F3F2092AF8D883B10F48A0FB0326B4FB3F
:1003D800F3F2092A02F1570C02F1300709DD03FB99
:1003E8001244F30801F801CBEFD100230B70F0BCE5
:1003F800704703FB1244F30801F8017BE5D10023A1
:100408000B70F0BC704700BFCDCCCCCC884270B428
:100418004FF0010442D301FB04F4B0FBF4F58D4224
:10042800F9D2ECB142BB092D04FB150005F15706C2
:1004380005F130020EDDB4FBF1F403F8016B7CB179
:10044800B0FBF4F5092D04FB150005F1570605F17D
:100458003002F0DCB4FBF1F403F8012B002CEFD1EF
:1004680000221A7070BC704703F8016BB4FBF1F4FA
:10047800002CF5D0B0FBF4F5092D04FB150005F1AF
:10048800370605F13002EFDCB4FBF1F403F8012B79
:10049800002CEFD100221A7070BC70470546002A64
:1004A800EAD1C0E72DE9F04714461D460646002369
:1004B8004FF47A722046294631F070FEDFF8488101
:1004C8004B4A4C4F88FB00310144C31782FB002C78
:1004D800C3EB611188FB012887FB00278444464A47
:1004E800C3EBEC2CC1EB011E82FB0C29A0EB8E0E9A
:1004F8000744424A86F806E0C3EB27474FEAEC7EFA
:1005080008EB010ACEEBA90E82FB07824FEAE178DD
:100518000EEB4E0EC8EB6A18ACEBCE0CC8EB081805
:10052800DFF8E8E086F804C0A1EB880171718EFB62
:100538000010F917C1EBE21240F2B55101FB12723B
:10054800C3EBE050B2F5896F4FEA80073FDA40F21B
:10055800DA239A4243DCB2F5B77FB4BF4FF0000EFE
:100568004FF0010E4FEA4E08254B08EB0E0103EB46
:10057800C1031FFA8EFC588D224908EB0E0301EBCC
:10058800C30116310B2301E031F8020D90421BDD47
:10059800013BF9D11A4BC64403EBCE0E0123BEF83A
:1005A8001400B37007F2B2770132121ABC44F27029
:1005B800A6F800C0204629464FF47A72002331F08D
:1005C800EDFD3281BDE8F0870133DBB2E9E74FF09A
:1005D800030CE64640F296504FF00608CCE74FF081
:1005E800020CE64640F229404FF00408C4E700BF79
:1005F800C5B3A29107452EC2ABAAAA2A73B06D163D
:10060800302B0308442B030889888888792D031127
:1006180003685A1C02601970704700BF2DE9F04743
:10062800089C2578002B804689460CBF4FF0200A8D
:100638004FF0300A661C25B3002A26DD334601E058
:10064800024698B113F8011B501E0029F8D1971ED5
:1006580060B13D46013D51464046C8476B1C002BE2
:10066800F8DC257827EAE770013045B1041B2946F4
:100678004046C847301916F8015B002DF7D1BDE890
:10068800F087002A03DC2846F9E70020EEE7571E2A
:10069800DFE700BFD0E9012300EB83010133934278
:1006A800D0ED037A81ED040A836004BF00238360E0
:1006B80000EB830393ED047A036870EE277A9A427D
:1006C800C0ED037A77EEC77AC0ED037A0CDA01330E
:1006D80007EE103AF8EEC76AB7EE007A87EEA60A78
:1006E800036030EE070A704707EE102AB8EEC77AA3
:1006F80087EE870A704700BFD0ED057A90ED013A82
:10070800D0ED003AD0ED064A90ED024A90ED077A16
:1007180090ED035A90ED086AD0ED045AC0ED067AC0
:10072800F0EE406A27EE830AC0ED056AA3EEA60A3A
:1007380080ED087AA4EE240AA5EE470AA5EEC60ABB
:1007480080ED070A704700BFD0ED007A90ED017A7E
:1007580030EE670AE7EE007AB0EE670AC0ED007A7D
:10076800704700BF704700BF0A44914215D030B4AB
:100778000139551E41F2210211F8014F082380EA80
:10078800042004044CBF82EA40004000013B80B2D0
:10079800F7D18D42F0D130BC704770472C2202232C
:1007A80002704370704700BF012380F854307047CF
:1007B800437F33B1012B03D14FF400638382704729
:1007C80070474FF48063838270477047704743785F
:1007D800007840EA032010FB01F04FF4807190FB91
:1007E800F1F000F30F0000B270472DE9F04FDFF889
:1007F800DCC1754CDCF800502288B4F90AA0C2EBC1
:1008080025135200C2EBE502B4F902505B436A4378
:10081800B4F904501B135D43AD1305EBE225B5F5A0
:10082800FA324FEAE57B85B04BF1FF33CDE900237F
:10083800DDE900325343009AA561A2FB0289CDE9A4
:100848000201B4F908200199009809EB43095143C2
:10085800D31700FB0311A2FB00230B444FEAEA7BEA
:100868000AFB09F11F0308FB0B13AAFB0801194433
:100878004FEA102A4AEA016A16034FEA212B47EA8F
:1008880012571AEB0602E6884BEB070312F1000A2F
:1008980043F5004BAAFB060106FB0B114A10CB17C8
:1008A80052EA030100F08E80B4F91060009806FB4C
:1008B80009F1F71708FB0711A6FB08673944B4F9D3
:1008C8000E808B4601994FEAE87908FB01F100FB9D
:1008D8000911A8FB00898944DCF804104FEA49474C
:1008E800C1F5801C47EAD837B2464FEA4846B4F902
:1008F8000C801AEB060A66464BEB070BF7174FEA14
:10090800C806019600260096F907DDE900674FEA58
:10091800CC7016EB0A0647EB0B0741EA5C01801B1B
:1009280061EB070140F6354C8946A0FB0C010CFB36
:10093800091131F033FCB4F91620B4F914A04E13A0
:10094800470B47EAC14702FB06FCD31707FB03CC5A
:10095800A2FB07236344564307FB0366A2FB072356
:100968003344560E46EAC31632184FEA636747EB1C
:10097800010380460AFB01F14FEAEA7B08FB0B17EB
:10098800AAFB08013944C60C46EA413612EB0608B0
:100998004FEAE147B4F9122043EB07094FEA18215F
:1009A80041EA096113010B44029A0AB11B0A136058
:1009B800039B23B105EB850580352D121D6005B01D
:1009C800BDE8F08F0023EFE78C36002000240020DC
:1009D80070472DE9F041334B334E1A897489B6F9C3
:1009E8001450B6F90480B6F90E70B6F920C0DB6869
:1009F800121B34895443E213B6F912401544E40239
:100A080094FBF5F4B6F902501444A4F57A6E0EFB83
:100A18000EF20EFB05F50EFB08FEB6F90C80F4612C
:100A28001213574302FB08F2121402EB6E32ED1256
:100A380005EBE7270232B6F90050B6F806E0921047
:100A480002F5004207EB85070EFB02F207FA0CF7E6
:100A58004FEAD23E02374CF25032A3EBA70742FAD4
:100A68000CF37B4355BF5B00B3FBFEF3B3FBFEF314
:100A78005B0078B11A1202FB02F540F6DE326A43D7
:100A88000A4D12145D4302EB254202F6CF6203EBD6
:100A98002213036021B10A235C43083424110C603B
:100AA800BDE8F081002400205436002043E3FFFF16
:100AB8006D4B2DE9F04F1C696C4BB3F80AE0B3F8A5
:100AC80004809A894FEA0E2AB4EB0A044FEA1E6B97
:100AD8004FF0000587B065EB0B05CDE900450746EB
:100AE800009C1889019EA0FB044500FB0655E009FF
:100AF80040EA45604FEA08448C46E9114FEA184538
:100B080010EB0408D888009C41EB0509CDE904895D
:100B1800A0FB0445B3F8028000FB0655200A40EA12
:100B280005604FEAC83429124FEA584510EB04080B
:100B380041EB05090099A2FB010102FB06114FEAEE
:100B4800D05A4AEA412A1AF5FA634FEAE15B4BF1B7
:100B58000004B3F5FA6FCDE9023474F10003424E94
:100B680064DA0524AAFB040104FB0B1100FB0BF457
:100B78000AFB0144DDE90423A0FB0A0121444D10CE
:100B88004FEA3004121B4FEA900463EB050344EA72
:100B98008174B8EB0408CDE90423DDE90234344854
:100BA8004FEAA10569EB05094FF0FF31834274EB69
:100BB800010326DA40F6AC501AEB00024FF00001B0
:100BC8004BEB010302FB03F1A2FB022303EB4103FE
:100BD800D400DD00101B45EA527563EB0501DDE921
:100BE800044524184D41CDE904450B24A2FB04011A
:100BF80004FB031149104FEA3000B8EB000869EB19
:100C08000109DDE900325343009ADDE90201A2FB44
:100C180002AB0BEB430B4FEADA7242EA4B02801A43
:100C28004FEAEB7361EB0301CDE9020197B17169FA
:100C3800A1FB082301FB0933540D5D1544EAC324C5
:100C4800DDE90423A21A65EB03031D46D30B43EA2F
:100C580045433B60BCF1000F02D0029BCCF800304A
:100C680007B0BDE8F08F00BF0024002078360020D0
:100C780024FAFFFF13B50C466A4603210C3028F00E
:100C88004BF9A0B19DF800209DF8013043EA0223FA
:100C980023809DF802209DF8033043EA0223A380B5
:100CA8009DF804209DF8053043EA0223638002B0D2
:100CB80010BD07B5F7216A4628F02EF99DF80130D6
:100CC8009DF800100B4A1B0143EA01339DF80210FE
:100CD80043EA111353609DF804309DF803101B017B
:100CE80043EA01339DF8051043EA1113136003B07A
:100CF8005DF804FB0024002070B4D0E90041057BB6
:100D080002690223AB4063600B684FF6FE70034034
:100D18000B60EFF31183502181F31288966B3168D1
:100D2800C9071CD4706870B9D2E909418C4213D044
:100D380095690D44F56017D81469611A716090625D
:100D4800002182F85410326842F00102DBB23260AE
:100D580083F3118870BC7047012182F85410DBB20C
:100D680083F3118870BC7047611A71609462E7E779
:100D780070B40468037B2268022101FA03F31A4263
:100D880017D002691249134802EB420201EB4212E2
:100D980005785068016875B9C568528928684FF6A2
:100DA800FE7630402860C868D24392B20240CA60DA
:100DB800636070BC7047406902684FF6FE752A4050
:100DC8000260CA684FF6FF600240CA60F0E700BFE1
:100DD800A4680020A068002070B4174B1D784DB39C
:100DE800164A174B11784FF4987202FB053540F2FA
:100DF8000D3610E058681C894460046844F001040A
:100E08000460A2F84860D06803F5987340F48070D5
:100E1800AB42D0600ED01A680029EBD15162B3F80A
:100E28002C01D4682043D06003F5987323F8041C80
:100E3800AB42F0D170BC7047A46B0020A0680020C2
:100E4800A86B002010B50168047B0A680223A34040
:100E58001A420AD0054A406800241470026822F039
:100E680001021204120C02604B6010BD397B002095
:100E78002DE9F0478C4A8D4B12781C78D20706462C
:100E880048D58B4D012C00F091801ED3022C40F0E8
:100E98009B808849884A09881288884F914201D9DD
:100EA80001241C70EB7AFBB12B89EBB1844B1B78C6
:100EB800D3B113F0D1FD002800F0E2802B7B8342F0
:100EC8002CBF012300233B700FE0DFF8E8C17B4F04
:100ED8007C4CBCF800002288697B521A8242DFDA17
:100EE800EB7A0024002BDFD13B782A79632A07D8D4
:100EF8007549022C087800F0B880002840F0A080DE
:100F08007249AA7A9C4238BF1C460C70002A44D108
:100F1800BDE8F087DFF89CC1654DBCF80000BCF85F
:100F2800021095F803E06A4F411A0029A4F1030260
:100F3800B8BF4942704597F80080D2B211D32F78D4
:100F480087420ED3012A45D9B8F1020F9AD15C48DD
:100F5800604A007890800229CCBF00210121D1800D
:100F680090E7B0EB4E0FEDDC012A40F28C800229AD
:100F7800EADC0324514F524852494F4A1C70B8F1D9
:100F8800020F4FF000033C7003700B80138089D16F
:100F9800504A01219380D18084E7012C6BD0022C28
:100FA800B6D10720BDE8F04714F08EBE424A414949
:100FB8001288687B0988121A914207DD414A128813
:100FC8008A423CBF00241C703C4F6BE702241C7013
:100FD8003A4F67E70229B7DC95F800E090FBFEFE80
:100FE8000EF1010EBEF1080FDFF8D4A0AA786978D7
:100FF800DFF8C490334C314FA8BF4FF0080E8AF881
:1010080000E01FFA8EFA11FB0AF112FB0AF2DFF870
:10101800B8A0A9F8001092B200214FF06409B8F105
:10102800020F228039701970CAF804108AF80190EA
:101038007FF452AF274A0121A2F804E0D18048E7A3
:101048004868301A244EB042C8BF4A703FF758AFBC
:10105800C2F16402214E00FB02F086FB0062C01759
:10106800A0EBA250643048704AE70028E8D1012775
:101078004E600F70ECE70820BDE8F04714F024BE7E
:1010880002233B7031E7032C7FF471AFB8F1020FF4
:101098009AD10B4A0F4B12789A800229CCBF0021B3
:1010A8000121D980054FFDE629750020FC3A002072
:1010B80088780020187B0020003B00200C3B002093
:1010C800907D0020FE3A0020043B00208678002016
:1010D80064770020687700207F9698006BCA5F6B62
:1010E80030B50446006D61710368A26823F00103FE
:1010F800036087B0A379009213F0040F4FEA03321C
:101108004FEA032314BF4FF48055002503F480638E
:1011180002F400520195CDE90223002511F00103E4
:1011280005952ED1049308238D07694648BF04937B
:101138002BF09EFF6079236DA17900F00202002A4E
:1011480015BF4FF440324FF480324FF4003400247E
:1011580010F0010F586808BF2246CC074CBF024365
:1011680020EA02025A609A6809074CBF42F0080256
:1011780022F008029A601A6842F001021A6007B069
:1011880030BD042304930C23CEE700BF30B50446DA
:10119800006DA160036823F001030360A3796579FA
:1011A80087B013F0040F4FEA03324FEA032303F426
:1011B800806302F40052CDE90223009114BF4FF47A
:1011C80080510021EB0748BF042301914FF0000133
:1011D800CDE9041154BF08230493694648BF0C2382
:1011E800AD0748BF04932BF043FF6079236DA179C5
:1011F80000F00202002A15BF4FF440324FF480324B
:101208004FF40034002410F0010F586808BF22463C
:10121800CC074CBF024320EA02025A609A680907C9
:101228004CBF42F0080222F008029A601A6842F0A5
:1012380001021A6007B030BD2DE9F3410569064681
:101248000F467DBBD0F80080C8F30A0323B3002300
:10125800D6F80080019328F0E7FD042819D1224C24
:10126800236943F001032361BBB2A8F8003028F0DA
:10127800DBFD04282ED108F102030193019B3F0CEA
:101288001F8028F0D1FD2369042823F0010323617E
:1012980025D06FF0010505E028F0C6FD042805D02B
:1012A8004FF0FF35284602B0BDE8F0810E4C2369A7
:1012B80043F002032361C4F81480236943F0400318
:1012C800236128F0B1FD2369042823F00203236178
:1012D800BDD0E5E7236923F001032361D9E733682B
:1012E80004333360DEE700BF00200240F8B504464F
:1012F8000D468E180027B54201D12069F8BDE36874
:10130800591CE160234415F8012B1A720429F2D103
:10131800A1682046FFF790FFC4E90370EBE700BF20
:101328004B0901F01F0150F82320012303FA01F1B2
:10133800114214BF18460020704700BF022828BF7A
:10134800022010B4084C094B207000EB8002C0EB5F
:10135800C20207495DF8044B013003EB4203C0B2F7
:101368000B6014F0EFBC00BFFD8200206226002055
:10137800E47D0020DFED317A30EE277AFDEEC76A92
:1013880016EE903A2033402B02D99FED2D0A704774
:10139800B4EEE70AF1EE10FA4DDD9FED2A6ADFEDB3
:1013A8002A6A01E0B0EE677AB4EEE67AF1EE10FA56
:1013B80077EE467AF6DC9FED257AF4EEC77AF1EE01
:1013C80010FA35D5DFED1F6A9FED217A01E0F0EEC6
:1013D800407AF4EEC77AF1EE10FA37EEA60AF6D4A0
:1013E800DFED167AB4EEE70AF1EE10FA1BDCDFED5A
:1013F800197AB4EEE70AF1EE10FA44BFDFED137A7A
:1014080037EEC00A60EE006A9FED136A9FED137A0B
:10141800DFED137AA6EE867A20EE266AE6EE877A64
:10142800A6EE270A7047DFED0F7A37EEC00AE9E724
:10143800B0EE670AD4E7F0EE477ABCE7DB0FC93FA6
:1014480000000000DB0FC940E4CB1641DB0F49C0A8
:10145800E4CB16C1DB0FC9BF92E741B99730083C0E
:1014680015A82ABEDB0F494038B5434B9A89D9895C
:10147800914224BF00229A81598A1A8A914224BF34
:1014880000221A82DA788AB3072A2FD03B493C4DCA
:1014980091F85C00012400210A282C709C70D971F5
:1014A8003DD00C2865D0DFED377A8ABB364C9FEDEE
:1014B800370AA278002918BFF0EE407A062A04D825
:1014C800334901EB820191ED1D0A217959B3013AA3
:1014D800032A0AD8F7EE007A87EE800A31F0D8FAA4
:1014E8002388984228BF1846208038BDD97921B171
:1014F80098780428B8BF04209870204890F85C00B9
:101508000A280CD00C28CED1DFED227A002ACDD0C3
:10151800072ACBD00A282CD1DFED1F7AC6E70A208C
:10152800DFED1E7AC1E79B78154907EE103A0A7875
:10153800B8EEC77A67EE277A07EE102AB8EEC77AB0
:1015480027EE277AB4EEC70AF1EE10FACDDD80EE69
:10155800277AFDEEC77A17EE903A102BA8BF102312
:10156800012BB8BF0123DBB29A4238BF1A460A7072
:1015780038BDDFED0B7A99E75059002070590020EB
:10158800EC3500206F1203397C6800206F12033895
:10159800302B03080AD7A3390F506E3A5304E938A1
:1015A8006F12833A38B50C4C0C4DAC4206D26168C8
:1015B8002046143413F054FCAC42F8D3084A094BC3
:1015C800094C1460002209491A705A7008480860CA
:1015D800BDE838402FF086B8B4940308789903081A
:1015E800E47D0020FD82002062260020E87D0020A6
:1015F80072270020F0B40C292BD8DFE801F0752AF7
:101608002A2A502A2A2A2C2A2A2A0700046AB2F8E7
:101618000CC0978816686B4D24F480540462036AE2
:101628004468C16923F4005343EA0C3321F4E641CA
:10163800A84243EA073341EA062100F0BC8005F5D9
:101648000065A84200F0B78092684460C1610264F6
:101658000362F0BC7047046AB2F80CC09788166839
:10166800584D24F480740462036A4468C16923F401
:10167800007343EA0C2321F07301A84243EA0723CD
:1016880041EA060100F0848005F50065A8427FD094
:1016980092684460C161F0BCC26303627047046A27
:1016A800B2F80CC097881668464D24F010040462FE
:1016B800036A4468816923F0200321F0807143EABA
:1016C8000C1321F4E641A84243EA071341EA062134
:1016D8004BD005F50065A84247D092684460816107
:1016E800F0BC826303627047046A9389B2F804C04D
:1016F8001768344E24F001040462046A456881695D
:1017080021F4803124F0020443EA0C0321F0730130
:10171800B04243EA040341EA07010ED02A4CA04232
:101728000BD004F54064A04207D004F58064A042C1
:1017380003D004F58064A04210D1D489168A578A50
:10174800B2F806C023F00803234325F4407523F0BC
:10175800040346EA07044CEA0303254392684560FC
:101768008161F0BC426303627047D589178AD688C5
:1017780023F0800343EA051324F44064558A23F0D8
:10178800400344EA870443EA061344EA8504A4E7CD
:10179800D589178AD68823F4006343EA052324F4FD
:1017A8004054558A23F4806344EA071443EA062325
:1017B80044EA05146CE7158A24F4804444EA851445
:1017C80042E700BF002C0140003401402DE9F84FEA
:1017D800DFF818827B487C4C7C4E7D4FDFF81092F6
:1017E800DFF810A24FF48C72002131F09DF84546C5
:1017F80078497948DFF800C2DFF800E208F5EE72B0
:1018080022E0B3F1804F00F0B880A34200F0BC8022
:10181800B34200F0BB80BB4200F0C680634500F0D5
:10182800C580734500F0C4804B4500F0C480534523
:1018380000F0C480DFF8C8B15B4508BF4FF48023CF
:1018480007D01C35AA420CD02B688B42D9D14FF453
:101858000063D0F818B01C3543EA0B03AA42836131
:10186800F2D15E4F5E4E4FF0030A4FF0020998F82E
:101878000630002B7AD098F804301C09013C052C5E
:1018880003F00F0372D837F8140040FA03F2D207B6
:101898006CD54FF0010B0BFA03F3013B184030F005
:1018A800CDFC504B1B5D184416EBC0045ED056F8B7
:1018B80030304D4898F8081003F13842920A825C9B
:1018C80002F01F005209022A0BFA00FB66D0032A15
:1018D8005ED0012A04D1404842694BEA02024261C3
:1018E800B4F804C0BCFA8CF2C2F11F0292B2D0085C
:1018F80003EB800002F00702046A92004FF00F0E1B
:101908000EFA02FE24EA0E040462046A01FA02F2E4
:10191800224302624FF0010E00220EFA02F434EA6A
:101928000C0120D15000D3F808B00AFA00F1C943DD
:101938000BEA010BC3F808B0D3F808B0C3F808B035
:10194800B3F804B02BEA04049C809C88A4B29C8061
:101958001C680C401C601C6809FA00F020431860E1
:10196800D8680140D9600132102AD6D108F11C0884
:1019780045457FF47CAFBDE8F88F0123D0F81CB053
:1019880043EA0B03C3615CE70223F7E70423F5E7A7
:101998001148C2694BEA0202C261A1E70E48826996
:1019A8004BEA020282619BE71023E7E72023E5E781
:1019B8004FF400534DE74FF480334AE74FF40033B8
:1019C80047E700BFD0550020000400400008004051
:1019D80000100040002C014000100240BC540308D5
:1019E80018580020C8540308D8520308E0520308C6
:1019F8000040014000440140001400400034014010
:101A08000048014000B9704703682DE9F04F03F121
:101A180038449C4EA40A0125345D04F01F0664096D
:101A2800022C05FA06F500F07481032C00F06C8195
:101A3800012C00F022818088B0FA80F4C4F11F04E0
:101A4800A4B2E50803EB850504F007042E6AA40098
:101A58000F27A74026EA07062E622E6A01F0030721
:101A6800A2407C1E3243012CC1F3810EC1F3001841
:101A78002A62C1F3411140F20981C6070BD51A68E1
:101A880022F003021A601A683A431A60DA6822F0F0
:101A980003020A43DA6085070DD51A6822F00C02A2
:101AA8001A601A6842EA87021A60DA6822F00C02A1
:101AB80042EA8102DA6044070DD51A6822F0300242
:101AC8001A601A6842EA07121A60DA6822F03002CD
:101AD80042EA0112DA6002070DD51A6822F0C00244
:101AE8001A601A6842EA87121A60DA6822F0C0029D
:101AF80042EA8112DA60C6060DD51A6822F44072ED
:101B08001A601A6842EA07221A60DA6822F44072F8
:101B180042EA0122DA6085060DD51A6822F440628D
:101B28001A601A6842EA87221A60DA6822F4406268
:101B380042EA8122DA6044060DD51A6822F440523E
:101B48001A601A6842EA07321A60DA6822F44052C8
:101B580042EA0132DA6002060DD51A6822F44042E0
:101B68001A601A6842EA87321A60DA6822F4404238
:101B780042EA8132DA60C6050DD51A6822F440328D
:101B88001A601A6842EA07421A60DA6822F4403298
:101B980042EA0142DA6085050DD51A6822F440222E
:101BA8001A601A6842EA87421A60DA6822F4402208
:101BB80042EA8142DA6044050DD51A6822F44012DF
:101BC8001A601A6842EA07521A60DA6822F4401268
:101BD80042EA0152DA6002050DD51A6822F4400281
:101BE8001A601A6842EA87521A60DA6822F44002D8
:101BF80042EA8152DA60C6040DD51A6822F04072B2
:101C08001A601A6842EA07621A60DA6822F04072BB
:101C180042EA0162DA6085040DD51A6822F0406252
:101C28001A601A6842EA87621A60DA6822F040622B
:101C380042EA8162DA6044040DD51A6822F0405203
:101C48001A601A6842EA07721A60DA6822F040528B
:101C580042EA0172DA6002040DD51A6822F04042A5
:101C68001A601A6842EA87771F60DA6822F04042F1
:101C780042EA8171D960BDE8F08F034C666935434B
:101C88006561D8E6D85203080010024000224FF0E0
:101C9800010C4FF003090CFA02F636EA00042ED1C3
:101CA8005400D3F808A009FA04F5ED4305EA0A0A36
:101CB800C3F808A0D3F808B00EFA04FA4AEA0B0AE7
:101CC800C3F808A0B3F804A02AEA06069E80B3F871
:101CD80004A008FA02F646EA0A06B6B29E801E6812
:101CE8002E401E60D3F800A007FA04F646EA0A065A
:101CF8001E60DE6801FA04F435402C43DC600132D2
:101D0800102AC8D1BDE8F08F044CE6693543E56177
:101D180091E6024CA6693543A5618CE600100240A5
:101D280003682DE9F04F03F13845A94EAD0A0124A7
:101D3800755D05F01F066D09022D04FA06F400F022
:101D48008D81032D00F08581012D00F03B81808875
:101D5800B0FA80F4C4F11F04A4B2E50803EB8505CA
:101D680004F007042E6AA4000F27A74026EA0706F6
:101D78002E622E6A01F0030702FA04F47A1E344335
:101D8800012AC1F3810EC1F300182C62C1F341117D
:101D980040F22281C60700F10881850700F1F6802C
:101DA800440700F1E480020700F1D280C60600F182
:101DB800C080850600F1AE80440600F19C800206D2
:101DC80000F18A80C60578D4850567D4440556D4C1
:101DD800020545D4C60434D4850423D4440412D45B
:101DE800020401D4BDE8F08F1A6822F040421A605C
:101DF8001A6842EA87771F60DA6822F0404242EAAE
:101E08008171D960EEE71A6822F040521A601A68A8
:101E180042EA07721A60DA6822F0405242EA017216
:101E2800DA60DDE71A6822F040621A601A6842EA4E
:101E380087621A60DA6822F0406242EA8162DA60F8
:101E4800CCE71A6822F040721A601A6842EA076200
:101E58001A60DA6822F0407242EA0162DA60BBE78F
:101E68001A6822F440021A601A6842EA87521A6015
:101E7800DA6822F4400242EA8152DA60AAE71A6874
:101E880022F440121A601A6842EA07521A60DA68A5
:101E980022F4401242EA0152DA6099E71A6822F401
:101EA80040221A601A6842EA87421A60DA6822F405
:101EB800402242EA8142DA6088E71A6822F4403216
:101EC8001A601A6842EA07421A60DA6822F4403255
:101ED80042EA0142DA6077E71A6822F440421A605F
:101EE8001A6842EA87321A60DA6822F4404242EA03
:101EF8008132DA6066E71A6822F440521A601A687A
:101F080042EA07321A60DA6822F4405242EA0132A1
:101F1800DA6054E71A6822F440621A601A6842EAE2
:101F280087221A60DA6822F4406242EA8122DA6083
:101F380042E71A6822F440721A601A6842EA0722D5
:101F48001A60DA6822F4407242EA0122DA6030E765
:101F58001A6822F0C0021A601A6842EA87121A60E8
:101F6800DA6822F0C00242EA8112DA601EE71A68D3
:101F780022F030021A601A6842EA07121A60DA6818
:101F880022F0300242EA0112DA600CE71A6822F005
:101F98000C021A601A6842EA87021A60DA6822F0AC
:101FA8000C0242EA8102DA60FAE61A6822F00302B9
:101FB8001A601A683A431A60DA6822F003020A4380
:101FC800DA60EAE6034D6E6934436C61BFE600BF30
:101FD800D85203080010024000224FF0010C4FF0C5
:101FE80003090CFA02F636EA00042ED15400D3F89D
:101FF80008A009FA04F5ED4305EA0A0AC3F808A09F
:10200800D3F808B00EFA04FA4AEA0B0AC3F808A093
:10201800B3F804A02AEA06069E80B3F804A008FADA
:1020280002F646EA0A06B6B29E801E682E401E6078
:10203800D3F800A007FA04F646EA0A061E60DE682E
:1020480001FA04F435402C43DC600132102AC8D16F
:10205800C8E6054DEE693443EC6178E6024DAE6999
:102068003443AC6173E600BF0010024010B50409A8
:10207800013C052C17D80E4B33F8142000F00F0044
:1020880042FA00F313F001030FD0012303FA00F022
:102098000138104030F0D2F8064A074B125D104460
:1020A80003EBC00010BD002010BD184610BD00BFD6
:1020B800BC540308C8540308185800202DE9F843F5
:1020C8002F4D2A69EB6812EA030826D02D4E4FF0EF
:1020D8000047B8FA88F327FA03F2D2431B3B2A6178
:1020E80008EA0208042B15D8DFE803F0372D231976
:1020F8000300D6F81431002B39D1EB6A1FFA83F9A3
:10210800D6F8104134B12368204649469847646898
:10211800002CF8D1B8F1000FDBD1BDE8F883D6F870
:10212800F000696B036889B29847B8F1000FD0D105
:10213800F3E7D6F8F400A96B036889B29847B8F1B9
:10214800000FC6D1E9E7D6F8F800E96B036889B251
:102158009847B8F1000FBCD1DFE7D6F8FC00296C2E
:10216800036889B29847B8F1000FB2D1D5E703F1F7
:10217800FF3900231FFA89F9C6F81431C0E700BFF8
:1021880000480140D05500202DE9F8432F4D2A6919
:10219800EB6812EA030826D02D4E4FF00047B8FA34
:1021A80088F327FA03F2D2431B3B2A6108EA0208A4
:1021B800042B15D8DFE803F0372D23190300D6F8D0
:1021C800C430002B39D1EB6A1FFA83F9D6F8C04026
:1021D80034B123682046494698476468002CF8D1F2
:1021E800B8F1000FDBD1BDE8F883D6F8A000696B21
:1021F800036889B29847B8F1000FD0D1F3E7D6F851
:10220800A400A96B036889B29847B8F1000FC6D13A
:10221800E9E7D6F8A800E96B036889B29847B8F1EE
:10222800000FBCD1DFE7D6F8AC00296C036889B28F
:102238009847B8F1000FB2D1D5E703F1FF39002371
:102248001FFA89F9C6F8C430C0E700BF0040014052
:10225800D05500202DE9F8432E4D2A69EB6812EA83
:10226800030826D02C4E4FF00047B8FA88F327FA17
:1022780003F2D2431B3B2A6108EA0208042B15D853
:10228800DFE803F0352B22190300D6F89C30002B29
:1022980037D1EB6A1FFA83F9D6F8984034B123682E
:1022A8002046494698476468002CF8D1B8F1000FD9
:1022B800DBD1BDE8F883B06F696B036889B29847D2
:1022C800B8F1000FD1D1F4E7F06FA96B036889B2B8
:1022D8009847B8F1000FC8D1EBE7D6F88000E96B52
:1022E800036889B29847B8F1000FBED1E1E7D6F884
:1022F8008400296C036889B29847B8F1000FB4D1FB
:10230800D7E703F1FF3900231FFA89F9C6F89C3093
:10231800C2E700BF00080040D05500202DE9F8436F
:102328002B4D2A69EB6812EA030824D0294E4FF096
:102338000047B8FA88F327FA03F2D2431B3B2A6115
:1023480008EA0208042B13D8DFE803F03229201723
:102358000300736F002B34D1EB6A1FFA83F9346FD3
:1023680034B123682046494698476468002CF8D160
:10237800B8F1000FDDD1BDE8F883306D696B0368F3
:1023880089B29847B8F1000FD3D1F4E7706DA96B03
:10239800036889B29847B8F1000FCAD1EBE7B06D6E
:1023A800E96B036889B29847B8F1000FC1D1E2E739
:1023B800F06D296C036889B29847B8F1000FB8D15D
:1023C800D9E703F1FF3900231FFA89F97367C6E7D4
:1023D80000040040D05500202DE9F8434FF0804517
:1023E8002A69EB6812EA030824D0294E4FF0004707
:1023F800B8FA88F327FA03F2D2431B3B2A6108EAAA
:102408000208042B13D8DFE803F032292017030051
:10241800F36C002B34D1EB6A1FFA83F9B46C34B136
:1024280023682046494698476468002CF8D1B8F1DB
:10243800000FDDD1BDE8F883B06A696B036889B223
:102448009847B8F1000FD3D1F4E7F06AA96B036895
:1024580089B29847B8F1000FCAD1EBE7306BE96B46
:10246800036889B29847B8F1000FC1D1E2E7706BF1
:10247800296C036889B29847B8F1000FB8D1D9E739
:1024880003F1FF3900231FFA89F9F364C6E700BF97
:10249800D05500202DE9F8435A4D2A69EB6812EA15
:1024A800030825D0584E4FF00047B8FA88F327FAAA
:1024B80003F2D2431B3B2A6108EA0208042B14D812
:1024C800DFE803F04A41382F0300736A002B40F01D
:1024D8009280EB6A1FFA83F9346A34B12368204684
:1024E800494698476468002CF8D1B8F1000FDCD150
:1024F800464D2A69EB6812EA03084AD0424E4FF06B
:102508000047B8FA88F327FA03F2D2431B3B2A6143
:1025180008EA0208042B39D8DFE803F05B51473D8D
:1025280027003068696B036889B29847B8F1000FD3
:10253800BBD1DDE77068A96B036889B29847B8F129
:10254800000FB2D1D4E7B068E96B036889B2984745
:10255800B8F1000FA9D1CBE7F068296C036889B2FC
:102568009847B8F1000FA0D1C2E7D6F8EC30002B9D
:1025780039D1EB6A1FFA83F9D6F8E84034B12368F9
:102588002046494698476468002CF8D1B8F1000FF6
:10259800B7D1BDE8F883D6F8C800696B036889B27B
:1025A8009847B8F1000FACD1F3E7D6F8CC00A96B87
:1025B800036889B29847B8F1000FA2D1E9E7D6F8C5
:1025C800D000E96B036889B29847B8F1000F98D139
:1025D800DFE7D6F8D400296C036889B29847B8F1C8
:1025E800000F8ED1D5E703F1FF3900231FFA89F9CF
:1025F800C6F8EC30C0E703F1FF3900231FFA89F968
:10260800736269E7002C0140D05500200044014066
:102618002DE9F8432B4D2A69EB6812EA030824D008
:10262800294E4FF00047B8FA88F327FA03F2D2434D
:102638001B3B2A6108EA0208042B13D8DFE803F0E1
:10264800322920170300736A002B34D1EB6A1FFA72
:1026580083F9346A34B12368204649469847646848
:10266800002CF8D1B8F1000FDDD1BDE8F88330684F
:10267800696B036889B29847B8F1000FD3D1F4E7C2
:102688007068A96B036889B29847B8F1000FCAD17E
:10269800EBE7B068E96B036889B29847B8F1000FB7
:1026A800C1D1E2E7F068296C036889B29847B8F1AC
:1026B800000FB8D1D9E703F1FF3900231FFA89F9D0
:1026C8007362C6E7002C0140D0550020F0B50668BB
:1026D8004D4CB30AA34200F094800AD94B4CA34254
:1026E80000F089800134A34266D0023CA34267D03F
:1026F800F0BD4A3CA34200F081800134A34205D0DA
:10270800B3F5801FF4D14827012501E09827032558
:1027180090F805C002232CFA03F084468340A800F1
:10272800002955D0D6F80CE044190CEB440C9BB2A8
:10273800374C43EA0E030CF1040E44F82C1044F80D
:102748002E20F360E319EFF31181502282F31288EF
:10275800421904EBC202D2F810C0BCF1000F03D03A
:1027680044F807C013690433421904EBC2025769DD
:1027780017B11F6053690433421904EBC202976909
:1027880017B11F6093690433421904EBC202D76979
:1027980017B11F60D36904330022C9B21A6081F3EC
:1027A8001188284404EBC004236A63B9F3684FF620
:1027B800FE721340F360F0BD4FF488770625A7E753
:1027C800C0270425A4E7F36843F00103F360F0BDD4
:1027D800D6F80CE00E4CDB439BB203EA0E0300EB89
:1027E800050E0CEB4E0CF3600CF1040344F82C10AE
:1027F80044F82320A6E7E827052589E7702702255E
:1028080086E72027002583E74B00100051001000C1
:10281800D055002030B503685A4D18885A4CB4FB7F
:10282800F2F20139013AAB4294B283B089B282B272
:102838000DD0564883420AD0B3F1804F07D0A0F597
:102848009830834203D000F58060834202D122F0A1
:10285800700292B24E4883426AD000F5806083428B
:1028680041D022F4407200F58C3092B283421A8033
:10287800D9621C8565D100221A8601225A611A88FC
:10288800404942F001028B421A806AD0B3F1804F6E
:1028980069D0404A934268D002F58062934266D07C
:1028A80002F50062934264D002F58062934262D0DE
:1028B80002F59032934260D002F5406293425ED0B6
:1028C80002F58062934217D002F58062934208BFF6
:1028D800092212D002A84FF0012340F8043D29F044
:1028E8009FFA03B030BD01201A80D9621C85586157
:1028F8001A8802431A80C9E70822274B03EBC20350
:1029080001A893F895408DF80440012300228DF822
:1029180005308DF807308DF8062029F081FA1B2C38
:10292800DFD11E4B019301A829F07AFA03B030BD1C
:1029380001201A80D9621C8558611A8802431A80BE
:10294800A7E7124A934296D002F54062934292D08A
:1029580002F5806293428ED002F5806293428AD05B
:102968008BE70022C9E70122C7E70222C5E7032255
:10297800C3E70422C1E70522BFE70622BDE7072215
:10298800BBE700BF002C014000A24A04003401400C
:102998000010004000040040302B0308190100011A
:1029A800204B98422DD0B0F1804F2CD0A3F5943312
:1029B80098422AD003F58063984228D003F5006333
:1029C800984226D003F58063984224D003F59033CB
:1029D800984222D003F54063984220D003F58063E3
:1029E800984207D003F58063984208BF092202D0B5
:1029F8000020704708220C4B03EBC20393F89400A5
:102A080070470022F7E70122F5E70222F3E70322E5
:102A1800F1E70422EFE70522EDE70622EBE70722BC
:102A2800E9E700BF002C0140302B03082DE9F04FE7
:102A3800013083B0C3B20193884C894E894DDFF8C9
:102A480038820A239B4626F0F1F8DFF820C24FF4BB
:102A5800FA7A4FF0100E4FF47A77DCF80430C3F3AB
:102A68000803002B40F0DD80EFF31183002B40F0CA
:102A7800D8802168AA6800BF23689942F9D13068D4
:102A880007FB00F39A1AB2FBF0F207FB0121DCF80E
:102A98000430C3F30803002B40F08880EFF3118360
:102AA800002B40F083802368A86800BF2268934207
:102AB800F9D1D6F8009007FB09F2101AB0FBF9F02B
:102AC80007FB03035B1AB3F57A7FE0D3BAF1010A77
:102AD800C3D1019825F020FF4FF47A7ADFF88CC132
:102AE80057464FF0100EDCF80430C3F30803002BF0
:102AF8007BD1EFF31183002B77D12168AA6800BF3F
:102B080023689942F9D1306807FB00F39A1AB2FB9F
:102B1800F0F207FB0121DCF80430C3F3080333BBF0
:102B2800EFF311831BBB2368A86800BF2268934298
:102B3800F9D1D6F8009007FB09F2101AB0FBF9F0AA
:102B480007FB03035B1AB3F57A7FE4D3BAF1010AF2
:102B5800C9D15B46013B9B467FF475AF4249434B65
:102B68004348444A0860DA6003B0BDE8F08FEFF3E9
:102B780011808EF31288D5F808902B68DB0304D5F2
:102B88000123C8F80030D5F808902368D8F8002049
:102B9800C0B280F311883068134407FB00F2A2EB3F
:102BA8000902B2FBF0F207FB0323CBE7EFF3118036
:102BB8008EF31288D5F808902B68DB0304D501231F
:102BC800C8F80030D5F808902368D8F80020C0B2BB
:102BD80080F311883068134407FB00F2A2EB090266
:102BE800B2FBF0F207FB03236CE7EFF311828EF3DD
:102BF8001288A8682B68D90303D50123C8F80030C8
:102C0800A8682368D8F80010D2B282F31188326815
:102C1800194407FB02F31B1AB3FBF2F307FB01315C
:102C280079E7EFF311828EF31288A8682B68D9032D
:102C380003D50123C8F80030A8682368D8F8001025
:102C4800D2B282F311883268194407FB02F31B1AC7
:102C5800B3FBF2F307FB013119E700BFB4550020BD
:102C6800B855002010E000E0FC9F002000ED00E0D7
:102C7800EFBEADDE0400FA05B05500202DE9F04F97
:102C880083B08E4DDFF8408201908B460BF1FF3305
:102C98009B46013300F00E8125F0C8FF884C894F10
:102CA800DFF828C24FF4FA7A4FF0100E4FF47A7614
:102CB800DCF80430C3F30803002B40F0DF80EFF3A7
:102CC8001183002B40F0DA802168AA6800BF2368CE
:102CD8009942F9D1386806FB00F39A1AB2FBF0F270
:102CE80006FB0121DCF80430C3F30803002B40F095
:102CF800A680EFF31183002B40F0A1802368A86819
:102D080000BF22689342F9D1D7F8009006FB09F278
:102D1800101AB0FBF9F006FB03035B1AB3F57A7FD0
:102D2800E0D3BAF1010AC3D1019B581CC0B225F007
:102D3800F3FDDFF898C1DCF804304FF47A7AC3F376
:102D4800080356464FF0100E002B38D1EFF31183CD
:102D5800002B34D12168AA6800BF23689942F9D1B1
:102D6800386806FB00F39A1AB2FBF0F206FB012161
:102D7800DCF80430C3F30803002B41D1EFF31183CF
:102D8800002B3DD12368A86800BF22689342F9D17F
:102D9800D7F8009006FB09F2101AB0FBF9F006FB11
:102DA80003035B1AB3F57A7FE2D3BAF1010A3FF461
:102DB8006DAFDCF80430C3F30803002BC6D0EFF383
:102DC80011828EF31288A8682B68D90303D50123D2
:102DD800C8F80030A8682368D8F80010D2B282F387
:102DE80011883A68194406FB02F31B1AB3FBF2F385
:102DF80006FB0131DCF80430C3F30803002BBDD017
:102E0800EFF311808EF31288D5F808902B68DB0356
:102E180004D50123C8F80030D5F808902368D8F8FD
:102E28000020C0B280F311883868134406FB00F212
:102E3800A2EB0902B2FBF0F206FB0323B1E7EFF3C2
:102E480011808EF31288D5F808902B68DB0304D51F
:102E58000123C8F80030D5F808902368D8F8002076
:102E6800C0B280F311883868134406FB00F2A2EB65
:102E78000902B2FBF0F206FB03234EE7EFF31182DF
:102E88008EF31288A8682B68D90303D50123C8F8E4
:102E98000030A8682368D8F80010D2B282F31188ED
:102EA8003A68194406FB02F31B1AB3FBF2F306FB5C
:102EB800013117E703B0BDE8F08F00BF10E000E074
:102EC800B4550020B8550020B055002000ED00E0B2
:102ED800204B5B68C3F3080330B4BBB9EFF311832D
:102EE800A3B91D4A1D481368846800BF11688B4246
:102EF800F9D11B4A11684FF47A7202FB01F0001BEA
:102F080030BCB0FBF1F002FB03007047EFF3118215
:102F1800102383F312881149124D8C680B68DB0368
:102F280044BF01232B600C4B48BF8C681B68286882
:102F3800D2B282F311880A4A11684FF47A7218449F
:102F480002FB01F31B1B30BCB3FBF1F302FB0030A7
:102F5800704700BF00ED00E0B455002010E000E02D
:102F6800B8550020B05500202DE9F84F0746264EE9
:102F7800264DFFF7ADFF264A2649DFF89CC04FF0E3
:102F8800100E4FF47A744FF001086B68C3F308030E
:102F9800CBB9EFF31183B3B91368D1F808A000BF18
:102FA800D2F800904B45F7D1D6F8009004FB09FB06
:102FB800ABEB0A0ABAFBF9FA04FB03A31B1ABB42E0
:102FC800E3D3BDE8F88FEFF3118A8EF31288D1F8B6
:102FD80008B00B68DB0344BFCCF80080D1F808B018
:102FE8001368DCF800905FFA8AFA8AF31188D6F839
:102FF80000A04B4404FB0AF9A9EB0B09B9FBFAF949
:1030080004FB0393DAE700BFB855002000ED00E0A9
:10301800B455002010E000E0B05500202DE9F84F2D
:103028002A4C2B4E2B4D2C4F804618F1FF384AD393
:10303800FFF74EFF29494B68C3F308034FF0100C04
:103048004FF47A724FF0010EEBB9EFF31183D3B955
:103058002368D5F808A000BFD4F800904B45F7D1F5
:10306800D6F8009002FB09FBABEB0A0ABAFBF9FAA7
:1030780002FB03A31B1AB3F57A7FD6D24B68C3F3BE
:103088000803002BE1D0EFF3118A8CF31288D5F8EE
:1030980008B02B68DB0344BFC7F800E0D5F808B0D8
:1030A8002368D7F800905FFA8AFA8AF31188D6F86D
:1030B80000A04B4402FB0AF9A9EB0B09B9FBFAF98A
:1030C80002FB0393D6E7BDE8F88F00BFB455002094
:1030D800B855002010E000E0B055002000ED00E0F9
:1030E80030B4EFF31183102282F312880649074C9B
:1030F8000A680748013200250A602560DBB20268C9
:1031080083F3118830BC7047B4550020B0550020B7
:1031180010E000E01D4B70B59C68236D626BDD69A3
:10312800CAB1A36B33B12B0700D470BD236D08223D
:103138001A6270BD2A06F6D5D4E909028242216DC9
:1031480011D0501CA669A062B25C26690A85B042FB
:10315800E9D3A362E7E7A906E3D5E26A42B1988C0E
:10316800216B9047DDE70B6823F080030B60DAE7FB
:10317800E1699B8C6069DBB24E1CE6614354E169EE
:10318800E368994228BFE261CBE700BF244A0020E8
:103198001D4B70B55C68236D626BDD69CAB1A36BAA
:1031A80033B12B0700D470BD236D08221A6270BD9D
:1031B8002A06F6D5D4E909028242216D11D0501CA5
:1031C800A669A062B25C26690A85B042E9D3A36207
:1031D800E7E7A906E3D5E26A42B1988C216B9047EC
:1031E800DDE70B6823F080030B60DAE7E1699B8C6D
:1031F8006069DBB24E1CE6614354E169E3689942B9
:1032080028BFE261CBE700BF244A00201D4B70B500
:103218001C68236D626BDD69CAB1A36B33B12B07E0
:1032280000D470BD236D08221A6270BD2A06F6D537
:10323800D4E909028242216D11D0501CA669A0620E
:10324800B25C26690A85B042E9D3A362E7E7A9061A
:10325800E3D5E26A42B1988C216B9047DDE70B68B1
:1032680023F080030B60DAE7E1699B8C6069DBB2CD
:103278004E1CE6614354E169E368994228BFE26164
:10328800CBE700BF244A0020002A12DD70B50446AF
:103298000D468E18236820469B6898470028F9D069
:1032A800236815F8011B1B6820469847B542F1D1E1
:1032B80070BD704703685B6A03B11847704700BF69
:1032C80003681B6A03B11847704700BF03682DE9FC
:1032D800F041DD691DB12B46BDE8F0411847002AD1
:1032E800174611DD04460E460F4400E023689B682C
:1032F800204698470028F9D0236816F8011B1B6858
:1033080020469847BE42F1D1BDE8F08103689B6929
:10331800184700BF0368DB68184700BF03689B684D
:10332800184700BF03685B68184700BF03681B683D
:10333800184700BF014B9869F8E700BF0024002038
:10334800054B53F8203033B11A689B88918A0B4299
:1033580018BF1B049361704780550020036803F170
:1033680038422DE9F04F920AA74DAA5C02F01F05DA
:1033780052090124022A04FA05F400F09F81032A65
:1033880000F09781012A00F0518101F003077A1EAD
:10339800012AC1F3810EC1F300188488C1F34111D9
:1033A80040F24981E60700F13181A50700F11A8151
:1033B800600700F10581220700F1F080E60600F1C0
:1033C800DB80A50600F1C680600600F1B180220608
:1033D80000F19C80E60500F18780A50572D46005A0
:1033E8005FD422054CD4E60439D4A50426D460045D
:1033F80013D4220401D4BDE8F08F1A6822F04042A9
:103408001A601A6842EA87771F60DA6822F0404239
:1034180042EA8171D960BDE8F08F1A6822F0405203
:103428001A601A6842EA07721A60DA6822F0405293
:1034380042EA0172DA602204DDD5DEE71A6822F07A
:1034480040621A601A6842EA87621A60DA6822F0F3
:10345800406242EA81626004DA60CAD5DDE71A6830
:1034680022F040721A601A6842EA07621A60DA6843
:1034780022F0407242EA0162A504DA60B7D5DDE7BE
:103488001A6822F440021A601A6842EA87521A60DF
:10349800DA6822F4400242EA8152E604DA60A4D5EE
:1034A800DDE71A6822F440121A601A6842EA0752E5
:1034B8001A60DA6822F4401242EA0152DA60220500
:1034C80091D5DDE71A6822F440221A601A6842EAA8
:1034D80087421A60DA6822F4402242EA8142600593
:1034E800DA607FF57EAFDCE71A6822F440321A60B2
:1034F8001A6842EA07421A60DA6822F4403242EA5D
:103508000142A505DA607FF56AAFDBE71A6822F4A5
:1035180040421A601A6842EA87321A60DA6822F46E
:10352800404242EA8132E605DA607FF556AFDBE7D2
:103538001A6822F440521A601A6842EA07321A607E
:10354800DA6822F4405242EA0132DA6022067FF554
:1035580041AFDBE71A6822F440621A601A6842EA4F
:1035680087221A60DA6822F4406242EA8122600601
:10357800DA607FF52CAFDBE71A6822F440721A6034
:103588001A6842EA07221A60DA6822F4407242EAAC
:103598000122A506DA607FF517AFDBE71A6822F08B
:1035A800C0021A601A6842EA87121A60DA6822F0C2
:1035B800C00242EA8112E606DA607FF502AFDBE775
:1035C8001A6822F030021A601A6842EA07121A6072
:1035D800DA6822F0300242EA0112DA6022077FF547
:1035E800EDAEDBE71A6822F00C021A601A6842EAAC
:1035F80087021A60DA6822F00C0242EA8102600748
:10360800DA607FF5D8AEDBE7D85203081A6822F0F3
:1036180003021A601A683A431A60DA6822F0030251
:103628000A43A507DA607FF5C3AEDBE7264A55698A
:103638002C435461A9E600224FF0010C4FF0030916
:103648000CFA02F636EA04002ED15000D3F808A08E
:1036580009FA00F5ED430AEA050AC3F808A0D3F809
:1036680008B00EFA00FA4AEA0B0AC3F808A0B3F841
:1036780004A02AEA06069E80B3F804A008FA02F617
:1036880046EA0A06B6B29E801E682E401E60D3F82F
:1036980000A007FA00F646EA0A061E60DE6801FA8C
:1036A80000F035402843D8600132102AC8D1BDE85F
:1036B800F08F054AD5692C43D46166E6024A9569BC
:1036C8002C43946161E600BF001002402DE9F04FE1
:1036D8004A484B4B4B4C4FF090414FF0010A4FF08A
:1036E80002094FF004084FF0080E4FF0100C202785
:1036F8004026802530F8022B12F0010F03D0196004
:10370800A3F804A0083312F0020F03D01960A3F83D
:103718000490083312F0040F03D01960A3F8048052
:10372800083312F0080F03D01960A3F804E0083337
:1037380012F0100F03D01960A3F804C0083312F078
:10374800200F02D019609F80083312F0400F02D07A
:1037580019609E80083312F0800F02D019609D8096
:10376800083312F4807F05D04FF4807B1960A3F8EA
:1037780004B0083312F4007F05D04FF4007B1960C1
:10378800A3F804B0083312F4806F05D04FF4806BAF
:103798001960A3F804B0083312F4006F05D04FF491
:1037A800006B1960A3F804B0083312F4805F05D0E9
:1037B8004FF4805B1960A3F804B0083312F4005F7B
:1037C80005D04FF4005B1960A3F804B0083312F475
:1037D800804F05D04FF4804B1960A3F804B008332C
:1037E800D20B04D04FF4004219609A80083301F5D7
:1037F8008061A1427FF47EAFBDE8F08FBC5403081E
:10380800185800200018004800B97047036803F1F1
:1038180038422DE9F04F920AB24DAA5C02F01F051A
:1038280052090124022A04FA05F400F05F81032AF0
:1038380000F05381012A00F00D8101F003077A1E80
:10384800012AC1F3810EC1F300188488C1F3411124
:1038580040F20581E6070BD51A6822F003021A60C8
:103868001A683A431A60DA6822F003020A43DA60F7
:10387800A5070DD51A6822F00C021A601A6842EAE8
:1038880087021A60DA6822F00C0242EA8102DA60E2
:1038980060070DD51A6822F030021A601A6842EAE9
:1038A80007121A60DA6822F0300242EA0112DA607E
:1038B80022070DD51A6822F0C0021A601A6842EA77
:1038C80087121A60DA6822F0C00242EA8112DA60CE
:1038D800E6060DD51A6822F440721A601A6842EAA0
:1038E80007221A60DA6822F4407242EA0122DA609A
:1038F800A5060DD51A6822F440621A601A6842EAD1
:1039080087221A60DA6822F4406242EA8122DA6089
:1039180060060DD51A6822F440521A601A6842EA05
:1039280007321A60DA6822F4405242EA0132DA6059
:1039380022060DD51A6822F440421A601A6842EA33
:1039480087321A60DA6822F4404242EA8132DA6049
:10395800E6050DD51A6822F440321A601A6842EA60
:1039680007421A60DA6822F4403242EA0142DA6019
:10397800A5050DD51A6822F440221A601A6842EA91
:1039880087421A60DA6822F4402242EA8142DA6009
:1039980060050DD51A6822F440121A601A6842EAC6
:1039A80007521A60DA6822F4401242EA0152DA60D9
:1039B80022050DD51A6822F440021A601A6842EAF4
:1039C80087521A60DA6822F4400242EA8152DA60C9
:1039D800E6040DD51A6822F040721A601A6842EAA5
:1039E80007621A60DA6822F0407242EA0162DA601D
:1039F800A5040DD51A6822F040621A601A6842EAD6
:103A080087621A60DA6822F0406242EA8162DA600C
:103A180060040DD51A6822F040521A601A6842EA0A
:103A280007721A60DA6822F0405242EA0172DA60DC
:103A380022040DD51A6822F040421A601A6842EA38
:103A480087771F60DA6822F0404242EA8171D960C4
:103A5800BDE8F08F244A55692C435461EDE60022F5
:103A68004FF0010C4FF003090CFA02F636EA040095
:103A78002ED15000D3F808A009FA00F5ED430AEA60
:103A8800050AC3F808A0D3F808B00EFA00FA4AEA03
:103A98000B0AC3F808A0B3F804A02AEA06069E8019
:103AA800B3F804A008FA02F646EA0A06B6B29E80FF
:103AB8001E682E401E60D3F800A007FA00F646EAFA
:103AC8000A061E60DE6801FA00F035402843D86017
:103AD8000132102AC8D1BDE8F08F034AD5692C43BA
:103AE800D461AAE6D852030800100240024A956938
:103AF8002C439461A1E600BF0010024010B1036896
:103B080082881A85704700BF10B1036882889A615D
:103B1800704700BF18B1838811B10268936170477C
:103B28001B04FAE710B40A4B0A4A1C7801238340A5
:103B3800234052F8200029B9B3FA83F149095DF806
:103B4800044BE7E7191C18BF01215DF8044BE1E7B6
:103B58007C5500208055002008B501210220FFF780
:103B6800E1FF094B1B7803F00503052B08D0002162
:103B78000120FFF7D7FF00210846FFF7D3FFFEE734
:103B880021F0DDFEF3E700BF204A00200E4B1B8822
:103B980001463BB90D4B0E4A1B7810680BB981F0F2
:103BA8000101B7E70B4B5A691AB11A6810B91060CE
:103BB8005874704708480949008891FBF0F10120C2
:103BC80011605874704700BF8C5500208E55002036
:103BD8009055002094550020AC55002020A10700E6
:103BE80030B102688388128A1A4214BF012000206B
:103BF800704700BF2DE9F0410B4E356873691D40D1
:103C080010D0DFF828800127B5FA85F4C4F11F0425
:103C180008EB840307FA04F4D86903689847A543B6
:103C28007461F1D1BDE8F081000401400024002056
:103C38002DE9F0410B4E356873691D4010D0DFF84F
:103C480028800127B5FA85F4C4F11F0408EB840322
:103C580007FA04F4D86903689847A5437461F1D159
:103C6800BDE8F08100040140002400202DE9F04166
:103C78000B4E356873691D4010D0DFF82880012786
:103C8800B5FA85F4C4F11F0408EB840307FA04F4B9
:103C9800D86903689847A5437461F1D1BDE8F081FC
:103CA80000040140002400202DE9F0410B4E356846
:103CB80073691D4010D0DFF828800127B5FA85F414
:103CC800C4F11F0408EB840307FA04F4D8690368F5
:103CD8009847A5437461F1D1BDE8F0810004014023
:103CE800002400202DE9F0410B4E356873691D4012
:103CF80010D0DFF828800127B5FA85F4C4F11F0435
:103D080008EB840307FA04F4D86903689847A543C5
:103D18007461F1D1BDE8F081000401400024002065
:103D28002DE9F0410B4E356873691D4010D0DFF85E
:103D380028800127B5FA85F4C4F11F0408EB840331
:103D480007FA04F4D86903689847A5437461F1D168
:103D5800BDE8F08100040140002400202DE9F04175
:103D68000B4E356873691D4010D0DFF82880012795
:103D7800B5FA85F4C4F11F0408EB840307FA04F4C8
:103D8800D86903689847A5437461F1D1BDE8F0810B
:103D98000004014000240020002800F088802DE95C
:103DA800F0418488B4FA84F4C4F11F04651C82B01D
:103DB80002D102B0BDE8F081E6B206F0FC0505F1DB
:103DC800804505F5803506F00306D5F808C0384F5C
:103DD8000068B6004FF00F0E0EFA06FE2CEA0E0C25
:103DE80007EB840EC0F38720CEF81C10C5F808C076
:103DF800D5F80880DFF8C4E0DFF8C4C000FA06F19F
:103E08000120A04041EA0801A960CEF80000DCF8D2
:103E18000050284EDFF8AC80C1430D40CCF800506C
:103E280035680D403560DCF80050234E0543CCF86A
:103E38000050D8F800500D40C8F800505EF8085CF3
:103E480034442940102B4EF8081C94F8E040AEF199
:103E5800080E21D003F1804303F58233196801432A
:103E68001960274497F85C309342A2DD264400216C
:103E780096F8F0308DF804309411012301A887F8E2
:103E88005C208DF805408DF806108DF8073027F076
:103E9800C7FF02B0BDE8F081D8F800300343C8F886
:103EA8000030DEF800100143CEF80010D9E7704763
:103EB8000024002004040140302B030814040140AE
:103EC80000040140080401400B490C4A8B6943F087
:103ED800010310B58B611368094C43F480531360D8
:103EE80004F11C00402200212EF01EFD4FF0FF338C
:103EF800E365C4F85F3010BD0010024000000140C7
:103F08000024002003685B6A184700BF03681B6A27
:103F1800184700BF70B44E1C0568C2728672AC693F
:103F2800A44670BC604700BF2DE9F041044618461E
:103F38000D4616461F462EF029F92844A07220681F
:103F4800E672294645693B4632462046AC46BDE8FE
:103F5800F0416047036810B504461B68984723681A
:103F680020469B689847A37B0133A37310BD00BF0D
:103F780010B5036804469B689847FF2301226373C2
:103F8800227310BD064B984202D04FF0FF307047A5
:103F9800044A538B01339BB25383508B80B27047D2
:103FA800003800404C550020F8B584894FF6FF765C
:103FB8004FF47A742BB311B30F78013101E0B44296
:103FC80017D00589013CAD07A4B2F8D507734FF4A3
:103FD8007A7402E0BCB2B4420BD00589ED0704F153
:103FE800FF37F7D5057BEDB20AB115700132013BF9
:103FF800E0E7FFF7C7FF003018BF0120F8BDFF2733
:10400800DFE70120F8BD00BFF8B50378012B47D0E2
:10401800022B4BD1836801F07F0113B11C689B8888
:10402800238504461546406840F2E93302E0002B38
:1040380000F09F800289013B12F0020F9BB2F6D07C
:10404800017340F2E93302E0002B00F0928002890C
:10405800013B12F0010F9BB2F6D0037B606840F27F
:10406800E93302E0002B00F081800189013B11F067
:10407800020F9BB2F6D0057340F2E93301E0002B42
:1040880074D00289013B12F0010F9BB2F7D0037B79
:10409800A368002B68D01A689B8893610120F8BD3B
:1040A80090F904305C1C01D0022B01DD0020F8BD22
:1040B800434C03EB830304EB83035B68002B6DD055
:1040C8004579404E6D004FF42040EDB270669C6912
:1040D800270400F1FF303DD45C683B4F45F0807009
:1040E8003C4040F4903020434FF4204458607466BC
:1040F80001E0671C54D0986910F0020004F1FF3405
:10410800F7D04FF4204099627066014601E04F1CD9
:1041180019D0986910F0800001F1FF31F7D0596883
:10412800294845F00075014045F480350D434FF4AA
:1041380020415D607166986910F0020001F1FF315D
:104148001AD14C1CF7D1214A7166138801339BB2EE
:104158001380F8BD441CBAD11C4A70661388013319
:104168009BB213800020F8BD0120F8BDFFF70AFFBD
:104178008EE7FFF707FF71E74FF420419A627166F7
:104188000A4602E012F1FF3211D3996911F02001B9
:10419800F8D020217266D9610120F8BD1846F8BD13
:1041A8000A4A7466138801339BB21380F8BD074C22
:1041B8007266238801339BB208462380F8BD00BF8E
:1041C800484A002000240020009800FC984D002058
:1041D8002DE9F04F85B090F864300090002B40F046
:1041E800DB80009BA34CA44EA44FA54DDFF8B08202
:1041F8001033184680226B210193FFF705FF4FF01B
:10420800640A4FF01009FEF763FE4FF47A714FF01D
:10421800010C7B68C3F30803002B40F09D80EFF38B
:104228001183002B40F0988086462368A86800BF59
:1042380022689342F9D1024670469646326801FBDD
:1042480002FBABEB0E0EBEFBF2FE01FB03E31B1AF7
:10425800B3F57A7FDDD3BAF1010AD4D1DDF8049041
:10426800864F874DDFF8388203226B214846FFF7D7
:10427800CBFE009B484693F863201921FFF7C4FE44
:104288004FF00F0A4FF01009FEF722FE4FF47A7133
:104298004FF0010C7B68C3F30803002B3CD1EFF30C
:1042A8001183002B38D186462368A86800BF22688E
:1042B8009342F9D1024670469646326801FB02FBEA
:1042C800ABEB0E0EBEFBF2FE01FB03E31B1AB3F5CC
:1042D8007A7FDFD3BAF1010AD6D1009B019C93F80B
:1042E80062201A212046FFF78FFE18221B21204644
:1042F800FFF78AFE18221C212046FFF785FE0222BE
:1043080037212046FFF780FE204601223821FFF79B
:104318007BFE05B0BDE8F08FEFF3118E89F31288AC
:10432800D5F808B02B68DB0344BFC8F800C0D5F83F
:1043380008B02368D8F800205FFA8EFE8EF3118843
:10434800D6F800E0134401FB0EF2A2EB0B02B2FB1D
:10435800FEF201FB0323B9E7EFF3118E89F312880C
:10436800D5F808B02B68DA0344BFC8F800C0D5F800
:1043780008B02368D8F800205FFA8EFE8EF3118803
:10438800D6F800E0134401FB0EF2A2EB0B02B2FBDD
:10439800FEF201FB03235AE71C09013C052C03F03C
:1043A8000F0349D8374A32F8140040FA03F2D50708
:1043B80042D5012505FA03F3013B18402DF03EFFD5
:1043C800314B324A1B5D184412EBC00434D052F80A
:1043D8003000A288038A13407FF403AF00F138410C
:1043E800890A2B4EE371735C03F01F065B092021D9
:1043F800022B05FA06F5A17137D0032B30D0012B1B
:1044080029D0002302A9CDE9022323F0CDFF00998A
:10441800204B41F80C3FF02208232046FFF7BCFC54
:10442800A388B3FA83F3C3F11F03591C3FF4D9AE31
:10443800012202FA03F309E00099164B41F80C3FF8
:10444800F02208230020FFF7A7FC012312490A687D
:1044580013430B60C5E6114B59690D435D61D0E705
:104468000E4BD9690D43DD61CBE70C4B99690D43C0
:104478009D61C6E7B4550020B855002000ED00E066
:1044880010E000E0BC540308C85403081858002082
:10449800D8520308B1070008000401400010024088
:1044A800B055002010B500F10C0401220B21204664
:1044B800FFF7AAFD20B11D2209212046FFF7A4FD20
:1044C80000F0010010BD38B500F10C05044670225B
:1044D80000212846FFF798FD202201212846FFF7F2
:1044E80093FD002202212846FFF78EFD6420FEF787
:1044F80095FD607EC8B1FDF7B9FD0546FFF770FB75
:1045080098B11DB12223AB710023EB71284623F02B
:1045180091FF2146064B41F8083F28460823F02220
:10452800FFF73AFC284624F06DFD012038BD00BF96
:10453800D50700083122F42166E5044B93F82020C2
:104548009201343202F0FC02F4215DE55436002079
:104558002E22F42158E50122482155E5012258214F
:1045680052E500BF427A4AB110B5044604F10A0187
:10457800D0E9003098470023637210BD704700BF30
:10458800437A5A1C0344D2B242729972037A934214
:104598000AD84AB110B5044604F10A01D0E900303E
:1045A80098470023637210BD704700BFA8B10D4B38
:1045B800012210B402FA01F103F1750402E0033399
:1045C800A3420BD013F8012C8242F8D11A780A4280
:1045D800F5D001205DF8044B7047704700205DF866
:1045E800044B7047292C030830B40A4D002305F109
:1045F800F80401E0272B0AD003EB43020133A15C46
:104608008142F7D12A4430BC92F8FA007047002062
:1046180030BC7047302B0308024A136823EA0000B5
:1046280010607047042F00202DE9F84F0DF074FC3E
:10463800DFF83083AC4B434525D2DFF82C93AB4FE2
:1046480003F114069A464C462588621985B1BA4288
:104658000ED2052D0CD936F8143C6188C3F30B0330
:10466800994200F0DD80144625886219002DEED1AC
:1046780056F8101C50460AF1140A10F0F1FBC24516
:1046880006F11406DFD39A490B78A3F11702022A20
:104698000FD9984A12F83300002840F0F780D80064
:1046A800024452782AB1944A12F83330002B00F0B1
:1046B8001881924B5A78052A40F2DB8000225A7002
:1046C8001A788F488F490160022A00F2DB8002EBDA
:1046D80082018D4BC2EBC10203EB4203998C5A8CC9
:1046E8008A4C9142236001D300225A84884B9A78DD
:1046F800042A00F0D48032B91A88B2F5F07F84BF5A
:104708004FF4F0721A80834DFCF7AEFE2B68824A94
:104718001A40002A00F0DD80D80700F1DD80590436
:1047280000F1D2801A0700F1CA809B0400F1C08012
:1047380025F062FA10B979480FF0EAF98020FFF7FE
:104748006BFF4FF40030FFF767FF4FF40010FFF7DF
:1047580063FF4FF00070FFF75FFF4FF08060FFF7D7
:104768005BFF21F023FF002130226D482EF0DCF89A
:10477800206820F06DFC6B4B256803F1640102E0B2
:104788000533994273D01A78002AF9D19C78D878E1
:104798008442F5D26449654B0E79654CC820642182
:1047A80011FB060159600021624883F82010C3E913
:1047B8000211C3E90411C3E9061183F821105E4B05
:1047C8002270C0E926530DF0E7F95C4B9FED5C5A67
:1047D8001B885C4A9FED5C6A50795C4906EE903A0A
:1047E800F8EEE66A1388C5EE265A07EE103A5388A3
:1047F8001279C1ED005A07EE903AB8EEC77AF8EE92
:10480800E77A534B27EE067A67EE867A18725A7261
:1048180083ED017AC3ED007ABDE8F84F0DF024BBB3
:1048280063799B077FF41FAF56F8101C94F804B007
:10483800504610F015FB36F8143CBBEB133F07D07D
:104848000AF1140AC24506F11406FFF4FCAE1AE791
:1048580036F8123C56F8100CAA1FC3F30B039A4201
:1048680004F10601A8BF1A462DF04AFFE8E7012225
:1048780090E72449224801EB02111A780160022AC4
:104888007FF625AF00221A701F4B27E7D8001418AF
:104898006468002C7FF404AF17240C7000E79A8A30
:1048A800B2F57A7FBFF42FAF4FF47A729A822AE773
:1048B8002848FFF7B1FE4020FFF7AEFE38E726484C
:1048C800FFF7AAFE2B6830E72448FFF7A5FE2B6800
:1048D80028E743F001032B602148FFF79DFE2B6872
:1048E8001DE718230B70E4E6B494030800000408DD
:1048F8002C360020D8540308D03A0308FD82002043
:10490800E87D00207227002062260020E47D002038
:104918007C680020042F002009600002E85600206F
:104928006824002048370020105300203C7A0020DB
:104938008421002000240020F22D00209042002035
:10494800C0C9FB48D44A002017B7D1389442002088
:104958006C4D00200940000201600002092000029D
:10496800086000027899030802F00308F8B5174DAB
:104978002B78A92B28D16B78BE2B25D1022229466A
:104988004FF6FF70FBF7F0FE114FAC1C22884AB1BE
:10499800A618BE4218D2052A16D92146FBF7E4FE0E
:1049A8003446F3E721460222FBF7DEFE0222A11875
:1049B800FBF7DAFE0634074B641B1C8041F60F53E5
:1049C800C31A58425841F8BD0020FCE700F003081C
:1049D800000004089A4D00202DE9F04FDFF84491BB
:1049E8004B4F8BB00326A7EB09071022002106A81E
:1049F8002DF09AFFCDE90497464B1A69120604D5A3
:104A0800454A5A6002F188325A6001228DF8242002
:104A18003422DA60414B424C1B88ADF80030022248
:104A2800694604A8FCF762FC022269464FF6FF704B
:104A3800FBF79AFEDFF8F0A080464FF0000B5445D4
:104A480036D30AAC002524F8245D0222214604A8A6
:104A5800FCF74CFC022221464046FBF785FE40BA93
:104A6800C043ADF80800022202A904A8FCF73EFCE6
:104A7800079860B106ABC0F10402294618442DF02E
:104A880053FF069904A8FCF7D7FBCDE907509DF81A
:104A98002430089A23B11F490B6943F080030B6146
:104AA800013E2DD0002AA0D1FFF760FF50B32CE0C3
:104AB80065888DF80DB0C5F30B05AB1DADF8083052
:104AC8002388C3F30B02ADF80A201B0B062202A9A8
:104AD80004A88DF80C30FCF709FC062202A9404610
:104AE800FBF742FE616880462A4604A8FCF7FEFBF5
:104AF800616840462A46FBF737FE143480469EE735
:104B0800002AD1D00520FDF791FF0BB0BDE8F08F4A
:104B18000000040800200240230167459D2C03087B
:104B2800B494030800F003087899030808B50DF059
:104B3800F3F9FFF751FF0DF097F9FFF775FD012025
:104B4800BDE8084011F0FEB82DE9F047DF4C636876
:104B580020469847002800F0E280DD4B1B780122B0
:104B6800042B84F8342000F0DC80B4F9163006EE0B
:104B7800903AB4F9183007EE103AB4F91A3007EE43
:104B8800903AF8EEE66AB8EEC77AF8EEE77AC4ED3E
:104B98000A6A84ED0B7AC4ED0C7ACE4B1B88002B85
:104BA80072D0CD4DD4ED0A6AD5ED004A95ED050ACF
:104BB80095ED015A95ED067AD5ED047AD5ED035AAF
:104BC80095ED026AA4EEA60AA5EE267A67EEC07AEB
:104BD800A5EEC07AE6EE267A85ED057AC5ED067A69
:104BE8002DF056FFD4ED0B6AD5ED094A95ED0E0A66
:104BF80095ED0A5A95ED0F7AD5ED0D7AD5ED0C5A4B
:104C080095ED0B6AA4EEA60AA5EE267A67EEC07AA1
:104C1800A0EE657AE6EE867A06EE900AF8EEE66A87
:104C280085ED0E7AC5ED0F7AC4ED0A6A2DF030FFD6
:104C3800D4ED0C6AD5ED124A95ED170A95ED135A85
:104C480095ED187AD5ED167AD5ED155A95ED146AC5
:104C5800A6EEA40AA6EE857A67EEC07AA0EE657A7B
:104C6800E6EE867A06EE900AF8EEE66AC5ED187A60
:104C780085ED177AC4ED0B6A2DF00AFF07EE900A4E
:104C8800F8EEE77AC4ED0C7A944EA17F9448954DDE
:104C98000CF01EFE3288D5F89C30002A40F0968031
:104CA800914A1268520759D4B3F9002094ED0B6A5F
:104CB80094ED0C7A94ED0A5A8C4905EE902AB3F9D2
:104CC8000220B3F9043006EE902A07EE903AF8EE87
:104CD800E55A874B0A68D3ED003A93ED014AD3EDC4
:104CE800024AF8EEE66AF8EEE77A75EE655A76EE6D
:104CF800666A77EE677AC4ED0A5A34EE266A73EE6E
:104D0800A55A34EEA77A0132C3ED005AC4ED0B6AF6
:104D180083ED016AC4ED0C7A83ED027A0A60BDE87E
:104D2800F087B4F91600B4F91810B4F91A20714BC9
:104D380007EE900AF8EEE76A07EE901AB8EEE77AFF
:104D480007EE902AF8EEE77AC4ED0A6A18805980CF
:104D58009A8084ED0B7AC4ED0C7A1EE7B5F8AC2086
:104D6800322A00F0CF80002A40F0FD8095F8CA2052
:104D7800002A99D005F1BC0007C85F4EA78A86FBB8
:104D880002ECD217C2EB2C12D21B86FB00C786FBA3
:104D980001C6C017C917C1EB2611C0EB2710574E23
:104DA8009A80188059800023B381F38185F8CA302E
:104DB8000DF0B2F8FFF710FE0DF056F8FFF734FCCF
:104DC800012010F0BFFFD5F89C306DE7B2F5C87F21
:104DD80018BFD5ED287AD4ED0A6A0CBF9FED487A42
:104DE800B8EEE77ADFED467A0022C4ED0A7A1A8037
:104DF8003288B6F8008037EE267AB2F5C87F18BF39
:104E0800D5ED297ABDEEC77A18BFF8EEE77A17EE26
:104E1800101A85ED287A94ED0B7A77EE877A0027B9
:104E2800FDEEE77A0020B8F5C87FE76217EE902A12
:104E38005880C5ED297A00F08D80D5ED2A7A94ED59
:104E48000C7A2763F8EEE77AB8F1010F77EE877AE4
:104E58009880FDEEE77A17EE907AC5ED2A7A2FD181
:104E6800DFF894C0B4F814E0C8378CFB07A9C83140
:104E7800C832FF17C7EBE9178CFB01A98CFB02AC02
:104E8800D217C2EBEC12C917DFF870C05A80A7EB33
:104E98000E07C1EBE9119F801980ACF80C00ACF843
:104EA8000E000DF039F8FFF797FD0CF0DDFFFFF766
:104EB800BBFB404610F046FFB6F80080D5F89C30A2
:104EC80008F1FF38A6F80080EAE600BFA87D0020B8
:104ED80064770020FC2D0020002E00206453002061
:104EE800D07D002000240020785C00205C4D00204C
:104EF800604D0020687700201F85EB51EC2D0020C5
:104F080000000000D4ED0A6A94ED0B7AD4ED0C7A17
:104F180037491E68C968C5F8B060FDEEE66ABDEE9F
:104F2800C77AFDEEE77A9E88C5F8B8100020002100
:104F3800C5ED2F6AA062A5F8B460198085ED307AB6
:104F4800E06259802063C5ED317A9980013AA5F86D
:104F5800AC200BE7D4ED0C7A2763FDEEE77A988056
:104F6800C5ED2A7AACE7D5ED2F7A94ED0A5AD4ED3F
:104F78000B5A94ED0C6AF8EEE76AD5ED307AB8EE84
:104F8800E77AD5ED317AF8EEE77A76EE856A37EE8C
:104F9800257A77EE867AFDEEE66ABDEEC77AFDEEF3
:104FA800E77A00200021012AC5ED2F6AA062198046
:104FB80085ED307AE06259802063C5ED317A9980B9
:104FC800C4D10B2085F8C81085F8C92010F07CFEE4
:104FD800D5F89C30D5F8B0000549B5F8B42018606C
:104FE800D5F8B8009A80B5F8AC20C860AEE700BF25
:104FF800EC2D002008B5FCF7D5FA0CF08DFFFFF773
:10500800EBFCBDE808400CF02FBF00BF08B50CF062
:1050180083FFFFF7E1FCBDE808400CF025BF00BFA7
:105028000378202B024600F10100F9D0092BF7D0B4
:105038002D2B00F0A4802B2B03BF5378B7EE000A6A
:105048000246B7EE000AA3F13001C8B209289FED65
:10505800577A10D8F2EE046A07EE901AF8EEE77A5B
:1050680012F8013FE7EE267AA3F13001C8B2092809
:10507800B0EE677AF0D92E2B63D003F0DF03452B0F
:1050880002D020EE070A704710B451782D294FD06E
:105098002B2979D0A1F13003092B02F101027AD82A
:1050A8000024002303EB830301EB430312F8011FE1
:1050B800A1F130000928A3F13003F3D9B3F59A7FA1
:1050C8001A4628BF4FF49A72072B6CD9DFED386A5D
:1050D8001346F7EE007A083B072B67EEA67AFAD854
:1050E80002F00702DAB1F2EE046A012A67EEA67A44
:1050F80015D0022A67EEA67A11D0032A67EEA67A9F
:105108000DD0042A67EEA67A09D0052A67EEA67A9A
:1051180005D067EEA67A062A18BF67EEA67A002C95
:105128003BD087EE277A5DF8044B20EE070A7047DC
:105138009178A1F13003092B02F1020230D8012441
:10514800AFE75378A3F13001C8B2092802F1010290
:1051580093D8F2EE046AF0EE665A07EE901AF8EE6B
:10516800E77A12F8013F87EEA66AA3F13001C8B2C8
:10517800092866EEA56A37EE067AEED97DE75378F8
:10518800BFEE000A02465EE79178A1F13003092BD1
:1051980002F1020284D9F7EE007A27EE277AC2E7F5
:1051A800F7EE007ABDE7F7EE007A9BE70000000013
:1051B80020BCBE4CF8B5064615460846B6FBF2F4C8
:1051C80034B905FB14640C4B1B5D00F8013BF8BDBA
:1051D800B4FBF2F75FB905FB1747074B05FB1464EF
:1051E800DA5D00F8012B1B5D00F8013BF8BD38467D
:1051F800FFF7E0FFEFE700BF585A0308B5EEC00A13
:10520800DFED677A674AF1EE10FACCBF30EE270A75
:1052180030EE670ADFED647A20EE270A2DE9F047C1
:10522800FDEEC07A88B017EE904A84EAE47600234F
:10523800A6EBE476CDE902330493A2FB06325FEADB
:10524800D208054641D105AF58483946554BA3FB0E
:105258000623DB0803EB8303A6EB4303002CC35CA4
:105268000B704FF00002ACBF20232D234A70384644
:105278008DF808302CF08AFF0128394639D00228E9
:1052880042D0032805BF302302A802A88DF80930B0
:105298002DF052FB02A82CF079FF0338C4B2224645
:1052A80002A928462DF07EFB00232B5528462CF01A
:1052B8006DFF2E22431C02A92A542144E8182DF020
:1052C80057FB284608B0BDE8F087394BA3FB0623F7
:1052D8005B0922D105AF35483946324AA2FB08326C
:1052E800D20802EB8202A8EB4202835C01F8013B80
:1052F800ACE7302302A88DF809308DF80A308DF814
:105308000B302DF019FBC5E7302302A88DF80930C2
:105318008DF80A302DF010FBBCE7264AA2FB0612D6
:105328005FEA92190ED105AF204839461D4AA2FB03
:1053380003C2D20802EB8202A3EB4203C35C01F86A
:10534800013BCAE71C4AA2FB06125FEA523A0ED199
:1053580005AF16483946134AA2FB09C2D20802EB28
:105368008202A9EB4202825C01F8012BDEE71348B6
:10537800B6FBF0F058B905AF39460A20BAFBF0F28F
:1053880000FB12A20948825C01F8012BE3E705AF94
:1053980039460A220193FFF70DFF019B0146ECE70E
:1053A8006F12033ACDCCCCCC00007A44585A03088B
:1053B8001F85EB51D34D62105917B7D1A086010054
:1053C8000F4B2DE93048D3E9004554EA05020AD1CC
:1053D800034640F2011200201880988098715A8084
:1053E8001881BDE83088074B1A6814EB020B45F1A9
:1053F800000C5A466346FBF755F80120BDE8308893
:10540800604C0020B455002030B403888278164DD3
:10541800C478A3F2B27303F0030101EB4101013A2E
:1054280002EB810205EB4202611E958A027940F285
:10543800B5549B0804FB03132B4403EB430302EB13
:10544800C303427981790089C3EB031302EB830319
:10545800C3EB031301EB83034FF47A720021C2FB01
:10546800030130BC704700BF302B030802B370B48F
:105478008E1803E0121B14D1B14215D010F8012B7D
:10548800A2F14103192B11F8013BA3F1410598BF83
:105498002032192D03F12004ECD9D21A01D1002BA6
:1054A800EAD1104670BC70470022104670BC7047A5
:1054B800104670474FF0FF32FFF7D8BFA0F16103E5
:1054C800192B98BF20387047A0F14103192B98BFBA
:1054D80020307047202805D0093804288CBF0020C8
:1054E8000120704701207047613819288CBF0020BF
:1054F80001207047413819288CBF002001207047CF
:10550800303809288CBF002001207047A0F13003F3
:10551800092B07D920F02000413819288CBF00201A
:10552800012070470120704730B402681146531CAF
:10553800036011F8024B0160D31C51780360937823
:10554800151D05601B0443EA0123D078234343EA71
:10555800006030BC704700BF0368591C1A460160E0
:1055680012F8021B0260587841EA0020704700BF19
:1055780003685A1C02601878704700BF2DE9F04F85
:10558800C44B1D788DB0002D52D1C34BC34C93F83A
:1055980000B0DFF83CA3DFF83C930BF0010B04F5F7
:1055A8001C7754F80F0C38B1FDF7BCFE002840F00A
:1055B800078114F8073C3BB9D034BC4205F101051A
:1055C800EFD10DB0BDE8F08FD9F8002054F80B1CCE
:1055D800521A632AF0D9012B00F02082022BEBD15A
:1055E800AF4BB049DB78B04A8AF8D500003318BF12
:1055F80001230B70AD4854F80F3C1360CAF81830FB
:10560800CAF8D030AA4B0360A248AA4ACAF8CC20EC
:105618000121402301708AF8D430A7481EF0A4FC69
:10562800A6481DF0E9FA4FF4805019F09DFEC3E733
:105638009E4B18680028C4D0FEF794FFDFF868A2D4
:10564800DFF89482DAF80000FDF76CFE0028B8D085
:10565800DAF80000DFF88492FDF75CFE0928D9F833
:1056680000601AD03F2818D0002E6CD1042800F012
:10567800CF810C2800F09D807F28E3D0A0F1200383
:10568800DBB25E2BDED82028DCD0731C08F80600BD
:10569800C9F800301DF0A8FAD4E7002E67D1884B6E
:1056A800354603F59C77002D46D00833BB42FAD126
:1056B800DFF82CB22868DBF80020845D935D9C42FB
:1056C800304402EB060140F0A781741E4444324680
:1056D80013B9FD2A40F2378104F8013F0132C9F8B5
:1056E800002010F8013F11F8017F9F42F0D00AB165
:1056F800AB4513D073481DF07FFAAB4508D355F876
:10570800080B1DF079FA09201DF06EFA5D45F6D9EF
:105718006A481DF071FAD9F800200026964291D205
:10572800741E444414F8010F1DF05EFAD9F80030D5
:1057380001369E42F6D385E703F10802BA421D46B8
:10574800B6D01346AFE70C2833D00A2800F0CC8037
:105758000D2800F0C9807F2800F02481FF2E3FF635
:1057680071AFA0F12003DBB25E2B8ED96AE7544CEF
:105778004FF0000B04F59C775D4602E00834BC420C
:105788000DD0324621684046FFF770FE0028F5D15B
:10579800A346002DF2D125460834BC42F1D1002D94
:1057A80088D1BBF1000F3FF44DAF46481DF024FAF5
:1057B800A5E745481DF020FA40481DF01DFA41E7CD
:1057C800D9F80020414B44F80B2CD02202FB0533BA
:1057D80000260193DFF80C8104F8076CA4F10F038D
:1057E800009354F80F0CFDF79DFD00283FF4E4AE3C
:1057F80054F80F0CFDF78EFD14F8023C7BB92428F1
:1058080030D0BBF1000FECD1232800F0D58098F8F8
:105818002A308342E5D1012304F8073CE1E7012B54
:1058280024D0022B28D0032B00F0AF80042B00F0EB
:10583800CB80052B00F09780062BD2D114F801CC31
:10584800BCF1000F00F0FB80BCF1010F00F03481C7
:10585800002304F8023CD034BC4205F101057FF472
:10586800A0AEAEE6012304F8023CBAE74D2800F0EA
:10587800A78004F8026CB4E73C2804F8026C6CD0EA
:105888003E28AED10122032304F8012C04F8023C7F
:10589800A7E700BFB87B0020297500207F2B0020D8
:1058A800FD820020E43B0020904E0020444D002063
:1058B800CC24002059030008BC5A0308885A03085E
:1058C800943E0308805A0308905A0308702B00205E
:1058D80000240020B45500206451002064520020A8
:1058E800C43F0308E85600201DF009FA2321874821
:1058F8002DF031F8002845D0A0EB0802C9F80020A7
:1059080092B1531E18F80310202940F0F880023A8B
:10591800424404E012F80119202960D10346581EB8
:10592800002BF7D1C9F800304FF4807200214046AF
:105938002CF0FAFF764B1B78002B3FF442AE7548EB
:105948001DF05AF97EE6511C202008F80200C9F81B
:10595800001008F801300A46CAE6032304F8016C6F
:1059680004F8023C3DE714F8063C14F8051C14F84A
:10597800042C994259D890427FF47BAF062304F84F
:10598800023C5BE7D9F80020BAE7C0283FF671AFC0
:10599800042304F8050C04F8066C04F8040C04F855
:1059A800023C1EE7013E00235B48C9F8006008F886
:1059B80006301DF021F945E6022304F8073C10E7FC
:1059C800022304F8023C0CE714F8043C04F8030C26
:1059D8005840052304F8040C04F8023C01E7C9F810
:1059E80000304E4C002204F59C7708F8032003E0B1
:1059F8000834BC4200F085802168404621F0D2FF7F
:105A08000028F5D0BC427CD263689847002389E718
:105A18003E481FF071FFD4E5324668E6404A414BE4
:105A280041491160414ADA60C6E50199194442408A
:105A3800013304F8042C04F8063CC873D1E63C4B47
:105A4800ADF82AC00FCB0DF1300E04AE86E80F007A
:105A58004EF824CD14F8051C14F8033C089404EB04
:105A6800010C724631464FF0010E08A8CDF824C04B
:105A7800ADF828308DF82CE019F07EFC38B1049A86
:105A88002C4B00983146CDE904320FF023FA039EDF
:105A9800002304F8023C002E3FF48EAD54F80F0C9E
:105AA8000FF0BEFBD03454F8DF0CB047BC4205F110
:105AB80001057FF476AD84E514F8053C14F8032C51
:105AC8000894234409936E2A4FF00003ADF82E3052
